:100000000C94F9000C9421010C9421010C94210111
:100010000C9421010C9421010C9450170C94210193
:100020000C9421010C9421010C9421010C942101C8
:100030000C9421010C940D180C94C2140C9473159B
:100040000C9421010C9421010C9421010C942101A8
:100050000C94E1160C9421010C9421010C942101C3
:100060000C9406170C9421010C949B170C94751793
:100070000C9421010C9497160C9421010C942101ED
:100080000C9421010C9421010C942B170C94BC1698
:100090000C9433160C94E7170C94C1170C9421019F
:1000A0002D00626175647261746500656570726FC0
:1000B0006D32346C6332353600656570726F6D3247
:1000C000346C6331323800656570726F6D32346C38
:1000D000633136007365745F6932635F64657669A6
:1000E00063655F7479706500727334383500693206
:1000F0006300737769007561727400696E7465726C
:1001000066616365006164630076636300656E64C5
:100110000D00636F756E74006461746100726561D7
:100120006400777269746500646973636F766572E1
:10013000007663635F6F6E5F6F6666000073657461
:100140005F6465766963655F616464720076736598
:100150006C5F7663635F647574007377695F707555
:100160006C6C75705F656E007673656C5F35765F7D
:100170003376006D6F64650072733438355F646583
:100180005F726500756172745F70726F746F636F18
:100190006C00756172745F6462675F656E006770A2
:1001A000696F5F736574006770696F5F676574007E
:1001B000A7019E01920184017801730168015A012F
:1001C0004D013D0178013C013101280122011D0151
:1001D000180112010D0109010501FB00F600F200F2
:1001E000EE00E800D400C700B900AB00A200A000F8
:1001F000621811241FBECFEFCDBFDFE3DEBF18E2D0
:10020000A0E0B8E2E9EAFDE502C005900D92AA304F
:10021000B107D9F72BE2AAE0B8E201C01D92A733DB
:10022000B207E1F710E0C9EFD0E004C02197FE016A
:100230000E946D23C83FD107C9F70E94B8180C94DB
:1002400033290C9400000F9391E09093E7291092CA
:10025000E6296093E4297093E5294093E3292093EC
:10026000E2291092E1291092E0290093DF29880FFA
:100270008093DE2923E030E044E050E08091E329E0
:10028000882341F02093DC293093DD298091DE29F9
:100290008E7F0BC08091E229882351F04093DC29A6
:1002A0005093DD298091DE2981608093A70808C0E2
:1002B0008091E329811104C08091E229882311F300
:1002C0008091E6298823E1F38091E6298330B1F219
:1002D0008091E229882321F08091E0290F910895EF
:1002E0008091E629823031F0853031F0813031F46F
:1002F00080E0F4CF81E0F2CF83E0F0CF84E0EECF76
:10030000E0EAF8E091859066918722E030E0209362
:10031000DC293093DD298093CE291092CD290895D0
:1003200081E08093CD291092CE2993E09093AA0882
:100330009091AB0891FF10C01092DA29E091CB297F
:10034000F091CC2909958093D92985E090E080939C
:10035000DC299093DD2908951092DB298093D82918
:1003600086E090E0F4CF6093C9297093CA2908957C
:100370006093C7297093C8290895E091C929F09125
:10038000CA29309741F01092C6291092C5290995C3
:100390008091C529089580E00895E091C729F091E2
:1003A000C829309759F03091C4292091C3293217B8
:1003B00028F01092C4298093C329099408950895C0
:1003C000E091C4298091C329E81730F4F0E0ED5B97
:1003D000F64D808190E008958FEF9FEF0895909102
:1003E000C4298091C3292FEF3FEF981748F4E92FD4
:1003F000F0E0ED5BF64D208130E09F5F9093C429E3
:10040000C90108958091C3299091C429891B990B32
:100410000895CF92DF92EF92FF920F931F93CF93A5
:10042000DF937C018A01EB016B01C40ED51ECC1554
:10043000DD0551F06991D701ED91FC910190F081BA
:10044000E02DC7010995F3CFC801DF91CF911F912E
:100450000F91FF90EF90DF90CF9008952091C529E4
:1004600027FF08C021E030E0FC012283338390E0C5
:1004700080E008958091C629E82FF0E0ED53F74D14
:1004800060838F5F8093C6298093C52981E090E0C7
:100490000895DC01ED91FC91008CF18DE02D61E07F
:1004A00009940F938091DC299091DD290197A1F4A3
:1004B0008091E729811112C0062F20E04091C529C3
:1004C00063EC78E28091C2280E9423011092C62931
:1004D0001092C5290F91089580E0F8CF81E0F6CF02
:1004E0006093C2281092C6291092C5290895682FDA
:1004F00088EE99E20C947002DC01ED91FC91048C81
:10050000F58DE02D21E009940F9383E499E2809327
:10051000CF299093D0298091DC299091DD290197F2
:10052000C1F48091E729811116C0FA0141385105C3
:1005300010F0E0E8F0E0022F862F2E2F40E070E070
:1005400060E00E9423011092C4298093C3290F9177
:10055000089580E0F8CF81E0F6CFAB0121E0682F6D
:1005600088EE99E20C9484028F929F92AF92BF9290
:10057000CF92DF92EF92FF92CF93DF9340348DE0E2
:10058000580783E06807710508F44EC0411585E3FC
:1005900058078CE06807710508F43FC040385F4495
:1005A0006241710508F040C0C8E7D0E020E432E4C1
:1005B0004FE050E08090002890900128A090022801
:1005C000B0900328C501B4010E94C52269017A01D7
:1005D0008AE0C81AD108E108F108DE01A5019401FA
:1005E0000E94062320E03AEC4AE95BE30E94C52220
:1005F000C21AD30AE40AF50AF694E794D794C7948A
:10060000C092A608DF91CF91FF90EF90DF90CF903E
:10061000BF90AF909F908F900895CCE2D1E020E8FA
:100620003AE146E050E0C6CFC8EED3E020EA36E833
:1006300041E050E0BFCFE0EAF8E01382168281E0AB
:100640008583148611861092DC291092DD29089585
:100650001092C4291092C3291092C6291092C5295C
:100660008091DC299091DD29892BD9F482E090E0FA
:100670008093DC299093DD291092DB291092DA29EE
:100680001092CD291092CE291092C1281092D8290B
:10069000660F6093AC0881EE8093A90881E0809397
:1006A000A3088DEB91E08093CB299093CC2983EC28
:1006B00098E28093D1299093D2298DEC91E0809398
:1006C000D6299093D72983E499E28093D3299093F4
:1006D000D42980E88093D5290895E0E2F4E0808170
:1006E000887F80838FE193E00197F1F7000000C0DD
:1006F0000895CF93F89490912404976090932404E4
:1007000090912004976090932004FB0190E0ABE26D
:1007100061E175E0B7E3C4E0981709F46AC028E026
:1007200030E040E85081542309F446C05091200441
:1007300057605093200450912404587F5093240410
:10074000572F5A9501F0E9F7C89550912004587F2A
:10075000509320045B2F5A9501F0E9F7C895469510
:1007600021503109F9F620912004276020932004BC
:1007700020912404287F209324042C2F2A9501F013
:10078000E9F700C020912004287F20932004272F20
:100790002A9501F0E9F7C895209128043196277031
:1007A00009F180912004887F80932004789483EF5E
:1007B000911126C082EF24C05091200457605093BD
:1007C000200450912404587F509324045A2F5A95A2
:1007D00001F0E9F7C89550912004587F5093200408
:1007E000562FB9CF262F2A9501F0E9F7C8959F5FBC
:1007F00093CF80912004887F80932004789480E0B8
:10080000CF910895BF92CF92DF92EF92FF920F9314
:100810001F93CF93DF931F92CDB7DEB710E08FE128
:10082000E82E83E0F82E97E2D92E23E0C22E3FE196
:10083000B32E80912004876080932004809124044B
:10084000887F80932404C7010197F1F7000000C05E
:1008500080912004887F809320048D2D8A9501F05B
:10086000E9F7C895809120048760809320048091E7
:100870002404887F809324048C2D8A9501F0E9F765
:10088000C89580912004887F809320048B2D8A95C1
:1008900001F0E9F7C895809128048770E9F40E9477
:1008A0006D03012F000F802F816A8983BE016F5F66
:1008B0007F4F81E00E94790381110EC00E946D0379
:1008C000802F0F90DF91CF911F910F91FF90EF90AC
:1008D000DF90CF90BF9008951F5F183009F0A9CF27
:1008E0000FEFEECFDF92EF92FF920F931F93CF9314
:1008F000DF93EC01D62E7A0189018A819B810E94C7
:1009000077026D2D88EE99E20E942E0288EE99E220
:100910000E944902B7018A819B810E94AD02E801D1
:100920009091C3298091C429981731F088EE99E2FB
:100930000E94EF018993F4CFDF91CF911F910F9126
:10094000FF90EF90DF9008951F93CF93DF93EC011A
:10095000162F8A819B810E947702612F88EE99E28F
:100960000E942E0288EE99E20E94490261E070E046
:100970008A819B810E94AD029091C3298091C429F4
:10098000981741F088EE99E20E94EF01DF91CF9134
:100990001F910895FBCFCF93DF93D62FC42FFC0177
:1009A000828193810E9477026D2F88EE99E20E94E6
:1009B0002E026C2F88EE99E20E942E0288EE99E2B8
:1009C000DF91CF910C944902DF92EF92FF920F9347
:1009D0001F93CF93DF93EC01D62E7A0189018A8190
:1009E0009B810E9477026D2D88EE99E20E942E0273
:1009F00088EE99E20E944902B7018A819B810E9498
:100A0000AD02E8019091C3298091C429981731F073
:100A100088EE99E20E94EF018993F4CFDF91CF91A4
:100A20001F910F91FF90EF90DF900895CF93C62F05
:100A3000FC01828193810E9477026C2F88EE99E2FB
:100A40000E942E0288EE99E2CF910C944902282F41
:100A500030E0F901E452FD4640814F3F09F454C0B3
:100A60008B3258F4F901E257FD46E081EE2329F07C
:100A7000E130A1F010F0E63018F1F901EE53FD4637
:100A8000E081A0E2EA9FF0011124FC5F80818423D1
:100A900041F161157105F1F446830895E091010A71
:100AA000D901A855BD465C915C5F81E090E001C032
:100AB000880F5A95EAF780958E238093010ADDCF3F
:100AC00080E1E89FF0011124E05AF54F81818F7E8B
:100AD0008183D3CF6230710511F447830895458334
:100AE000089528553D46D9018C91309771F08F3F7C
:100AF00061F07096E80FF11D9FB7F8948081672B25
:100B000039F4877F80839FBF0895F0E0E0E0F4CF61
:100B10008860F8CFCF93DF9390E0FC01E452FD466C
:100B200020812F3F71F0FC01EE53FD46A08130E2A1
:100B3000A39FD0011124BC5F6130710529F4119687
:100B40002C93DF91CF91089588559D46EC01E88163
:100B5000EF3F89F0CD014096E80FF92FF11D9FB7C7
:100B6000F89412962C9380816230710539F4886074
:100B700080839FBFE6CFF0E0E0E0F1CF877FF8CF42
:100B80008F929F92AF92BF92CF92DF92EF92FF929D
:100B90001092C4291092C3291092C6291092C52917
:100BA0008091DC299091DD29892B09F04FC062E00A
:100BB00070E086E10E948A0562E070E087E10E94B1
:100BC0008A058091E3058093E30581E090E08093BE
:100BD000DC299093DD291092E0291092E1291092EE
:100BE000E7291092E62981EC8093A30880900028E1
:100BF00090900128A0900228B0900328C501B4016C
:100C000020EA36E841E050E00E94C52269017A01FD
:100C10008AE0C81AD108E108F108A8EEB3E0A501FE
:100C200094010E94062320E03AEC4AE95BE30E942B
:100C3000C522C21AD30AE40AF50AF694E794D794B7
:100C4000C794C092A60881E08093A508FF90EF901A
:100C5000DF90CF90BF90AF909F908F90089570E0FD
:100C600060E08EE00E948A0583E08093060681E0C2
:100C70008093080680910B0680FFFCCF9FB7F89405
:100C800080911006609111069FBF762F682F072E66
:100C9000000C880B990B0E9498212FE632E143E566
:100CA0005BE30E94F72129E639E649E650E40E9419
:100CB000F7210895CF93DF938FB7F89420917D2883
:100CC00030917E2840917F2850918028E091BA0A87
:100CD0009091B60A90FF06C02F5F3F4F4F4F5F4F76
:100CE000E091BA0A8FBFA0917B28B0917C28C09177
:100CF0007928D0917A280E940623EC9F9001ED9FDD
:100D0000300D1124620F731F811D911DDF91CF9152
:100D100008958F929F92AF92BF92CF92DF92EF92FF
:100D2000FF924B015C010E945A066B017C01A8EE08
:100D3000B3E0A50194010E940623C60ED71EE81E4B
:100D4000F91EC616D706E806F90618F40E945A06D8
:100D5000F8CF0E945A066C157D058E059F05C8F3D5
:100D6000FF90EF90DF90CF90BF90AF909F908F90CB
:100D700008952F923F924F925F926F927F928F923F
:100D80009F92AF92BF92CF92DF92EF92FF920F931A
:100D90001F93CF93DF93CDB7DEB72597CDBFDEBFCF
:100DA0008A839B835A01FA0131969F012A193B09D4
:100DB0002C833D8381918111F8CF862F82958F708E
:100DC00090E0019634E0880F991F3A95E1F7062FDD
:100DD00010E0801B910B482E8930910530F0382FA0
:100DE0003770432E11F428E0422E842D90E0EC81E0
:100DF000FD818E179F0708F065C02E2F24192770DC
:100E00002983E81BF90B93E0F695E7959A95E1F7AE
:100E10003296EC83FD83D12CC12C712C612C2C805B
:100E20003D8031E0231A3108EA81FB818281938180
:100E30000E947702602F88EE99E20E942E024501FF
:100E4000860C971C7401512CF70161917F0188EE8B
:100E500099E20E942E0237016A187B08F70180810F
:100E6000882331F0C701881999098415950560F325
:100E700088EE99E20E944902040D151D6AE070E0B7
:100E800080E090E00E948906FFEFCF1ADF0A2C81F4
:100E90003D812C153D05D9F42596CDBFDEBFDF91F0
:100EA000CF911F910F91FF90EF90DF90CF90BF9067
:100EB000AF909F908F907F906F905F904F903F90FA
:100EC0002F90089521E030E02C833D83A4CF88E06B
:100ED000482E2C143D0409F0A7CF4980A5CFDC0192
:100EE000ED91FC910190F081E02D0994AF92BF92B9
:100EF000CF92DF92EF92FF920F931F93CF93DF93E6
:100F00006C017B018B01040F151FEB015E01AE1814
:100F1000BF08C017D10759F06991D601ED91FC9136
:100F20000190F081E02DC6010995892B79F7C50163
:100F3000DF91CF911F910F91FF90EF90DF90CF90B5
:100F4000BF90AF90089590E080E00895EF92FF92F7
:100F50000F931F93CF93DF93C82FD0E0A09695E017
:100F6000CC0FDD1F9A95E1F7E984082F000F000FE1
:100F7000000FFF24F39410E08E2D8F2189F0E02FD5
:100F8000E10FF0E0EE0FFF1FE15FF74D80819181EF
:100F9000892B31F00190F081E02D90E080E00995FF
:100FA0001F5FFF0C183041F7E986DF91CF911F9149
:100FB0000F91FF90EF900895FC01A485B5851196DF
:100FC0008C91119781FD0FC09C9182898F5F8F73E7
:100FD0002389281749F0A289AE0FBF2FB11D59965A
:100FE0009C93828B08958C910895FC0154894589C6
:100FF000252F30E0842F90E0821B930B541710F0C4
:10100000CF96089501970895FC01928983899817D6
:1010100061F0A389AE0FBF2FB11D59968C919389B2
:101020009F5F9F73938B90E008958FEF9FEF0895DC
:10103000FC0192898389981731F08389E80FF11DAB
:10104000818D90E008958FEF9FEF0895FC019289C4
:101050002389892F90E0805C9F4F821B91098F73B9
:1010600099270895CF93DF93EC01E881F9810680F9
:10107000F781E02D0995EC85FD8586818F73868348
:10108000EC85FD8585818F7585838B898A8B198A8F
:10109000DF91CF910895CF92DF92EF92FF920F935D
:1010A0001F93CF93DF93EC016A017B01022F8989A3
:1010B000882339F0E881F9810288F389E02DCE0197
:1010C000099598898091E205892B8093E2051FB7E5
:1010D000F89460E070E281EA97E0A70196010E942F
:1010E000C52269017A018FEFC81AD80AE80AF80AFE
:1010F000F694E794D794C794EC85FD8586818D7F1F
:101100008683EC85FD8586818683198AA0912311CB
:101110000A2E000CBB0BA70196010E94112320E0B0
:1011200034E040E050E00E94E722EC85FD85C20EED
:10113000D31EE41EF51EC086D186EC85FD8507838F
:10114000EC85FD858681806C8683EC85FD858581B7
:10115000806885838E858B3220F462E070E00E9487
:101160008A058F858B3220F461E070E00E942705AC
:101170008F858B3220F461E070E00E948A051FBFEA
:10118000DF91CF911F910F91FF90EF90DF90CF9063
:101190000895CF93DF93FC0194898589C485D58513
:1011A000981306C08D818F7D8D83DF91CF91089537
:1011B000A589AE0FBF2FB11DA75ABF4F2C918589AE
:1011C00090E001968F739927858B80E48C83A485AA
:1011D000B58512962C93948985899813E6CFA485BA
:1011E000B58515968C9115978F7D15968C9387896B
:1011F0008823D9F2808D80931301178AD6CFDC0122
:101200001C96ED91FC910FB607FE03C0258125FDCC
:1012100004C0248125FD0C94C9080895EF92FF9223
:101220000F931F93CF93DF93EC0181E0898B9C890F
:101230008D8998131CC0AC85BD8514968C9114972C
:1012400085FF15C012966C93AC85BD8580E414961D
:101250008C93EC85FD8585818F7D858381E090E091
:10126000DF91CF911F910F91FF90EF9008958091A2
:10127000110180FF08C080911301888F8E898093AF
:10128000130181E08F8BF62E0C8910E00F5F1F4F4A
:101290000F731127E02E8D898E1104C0CE010E949C
:1012A000FF08F9CFEC89EC0FFD2FF11DE75AFF4F36
:1012B000F0820C8BEC85FD8585818062CECFCF934B
:1012C000DF93FC0121892223C9F0EC0180911101F7
:1012D00080FF08C080911301808F8689809313015D
:1012E00081E0878BEC85FD85858185FD03C0848148
:1012F00086FD04C0CE010E94FF08F4CFDF91CF919C
:10130000089581E00895DC01ED91FC910088F18958
:10131000E02D23E030E00994FB0101900020E9F783
:101320003197AF01461B570BDC01ED91FC91028018
:10133000F381E02D099468E373E988E99AE20C945B
:101340008C09CF93DF93FC014481558160817181C9
:1013500088E99AE20E947607EC010E949B098C0FB3
:101360009D1FDF91CF9108952F923F924F925F92F0
:101370006F927F928F929F92AF92BF92CF92DF92A5
:10138000EF92FF920F931F93CF93DF93CDB7DEB70A
:101390002597CDBFDEBF8A839B835A01FA01319620
:1013A0009F012A193B092C833D8381918111F8CF3C
:1013B000862F829586958695837090E0019636E01B
:1013C000880F991F3A95E1F7062F10E0801B910BCB
:1013D000482E8131910530F0382F3F70432E11F4A3
:1013E00020E1422E842D90E0EC81FD818E179F0735
:1013F00008F067C02E2F24192F702983E81BF90BE2
:1014000094E0F695E7959A95E1F73296EC83FD83A3
:10141000D12CC12C712C612C2C803D8031E0231A01
:101420003108EA81FB81828193810E947702602FDB
:1014300088EE99E20E942E024501860C971C7401E9
:10144000512CF70161917F0188EE99E20E942E02F2
:1014500037016A187B08F7018081882331F0C701C2
:10146000881999098415950560F30E949B0988EEF7
:1014700099E20E944902040D151D6AE070E080E0C7
:1014800090E00E948906FFEFCF1ADF0A2C813D8190
:101490002C153D05D9F42596CDBFDEBFDF91CF9148
:1014A0001F910F91FF90EF90DF90CF90BF90AF9082
:1014B0009F908F907F906F905F904F903F902F9074
:1014C000089521E030E02C833D83A2CF80E1482EB7
:1014D0002C143D0409F0A5CF4980A3CF1F93CF93CF
:1014E000DF93EC01162F8A819B810E947702612F86
:1014F00088EE99E20E942E0288EE99E20E9449024B
:1015000061E070E08A819B810E94AD029091C329C5
:101510008091C429981729F060E088E99AE20E9436
:101520006F070E949B0988EE99E20E94490263E0DE
:1015300070E080E090E00E94890680E0DF91CF912A
:101540001F9108956115710511F00C948C0990E0BC
:1015500080E00895BC0188E99AE20C94A20ACF9336
:10156000DF93BC0188E99AE20E94A20AEC010E9482
:101570009B098C0F9D1FDF91CF9108950F931F93AF
:10158000CF93DF938C01EB018BE393E90E94AA0ACE
:1015900089E493E90E94AA0AC8010E94AA0A88E77E
:1015A0009CE90E94AA0A63E070E080E090E00E945B
:1015B0008906CE010E94AA0A8AE393E90E94AA0A38
:1015C0008BE493E90E94AF0A63E070E080E090E072
:1015D000DF91CF911F910F910C948906EF92FF92AA
:1015E0000F931F93CF93DF93EC017B018A0180E57A
:1015F00093E90E94AA0A89E493E90E94AA0ACE010B
:101600000E94AA0A88E79CE90E94AA0A63E070E0A7
:1016100080E090E00E948906E7010E0D1F1DC017B3
:10162000D10731F0699188E99AE20E946F07F7CFFC
:101630008BE493E90E94AF0A63E070E080E090E001
:10164000DF91CF911F910F91FF90EF900C9489063D
:10165000EF92FF920F931F93CF93DF937C018B0147
:10166000EA018DE593E90E94AA0A89E493E90E94C0
:10167000AA0AC7010E94AA0A88E79CE90E94AA0A4E
:1016800063E070E080E090E00E948906C8010E945B
:10169000AA0ACE010E94AA0A8BE493E90E94AF0A2B
:1016A00063E070E080E090E0DF91CF911F910F91B7
:1016B000FF90EF900C948906CF93DF93EC010E948A
:1016C00002048A838F3F71F48AE693E90E94AF0A8D
:1016D00065E070E080E090E00E9489068A81DF91F9
:1016E000CF91089585EA93E90E94AF0AF7CF8F92D0
:1016F0009F92AF92BF92EF92FF920F931F93CF935F
:10170000DF93CDB7DEB7A197CDBFDEBF7C01FA0175
:10171000CB0119A2223008F42AE08E010F5D1F4F81
:10172000822E912CB12CA12CBF01A50194010E9405
:10173000C522F901CA016A30D4F4605DD8016E9304
:101740008D01232B242B252B79F7BD01C7010E9486
:10175000A20AA196CDBFDEBFDF91CF911F910F915D
:10176000FF90EF90BF90AF909F908F900895695C2D
:10177000E5CFCF92DF92EF92FF92CF93DF936C0190
:10178000990FEE08FF08F7FE1BC06DE288E99AE2A8
:101790000E946F07EC0144275527BA014C195D09D7
:1017A0006E097F092AE088E99AE20E94770B8C0F84
:1017B0009D1FDF91CF91FF90EF90DF90CF90089524
:1017C0002AE0B701A60188E99AE2DF91CF91FF9064
:1017D000EF90DF90CF900C94770BCF93DF930E9424
:1017E000B90BEC010E949B098C0F9D1FDF91CF91DB
:1017F00008958F929F92AF92BF92CF92DF92EF9215
:10180000FF920F931F93CF93DF937C018B016C01A9
:1018100082E0C80ED11C4701E5E08E0E911CD0E09D
:10182000C0E0F60141916F0150E070E060E02AE015
:10183000C8010E94770B5C016EE2C8010E946F072D
:101840008A0D9B1DC80FD91FC814D90451F7F70181
:10185000458150E070E060E02AE0C8010E94770B0B
:101860008C0F9D1FDF91CF911F910F91FF90EF90F3
:10187000DF90CF90BF90AF909F908F9008954F9240
:101880005F926F927F928F929F92AF92BF92CF9210
:10189000DF92EF92FF920F931F93CF936B017C0126
:1018A000742EAC019B010E94862466ED73E98111C0
:1018B00026C046015701E894B7F82FEF3FEF4FE7F6
:1018C0005FE7C501B4010E94862481110CC02FEF8F
:1018D0003FEF4FE75FE7C501B4010E9491216AED38
:1018E00073E9181664F02FEF3FEF4FE75FE4C7018D
:1018F000B6010E9481241816ACF46EED73E988E9F4
:101900009AE2CF911F910F91FF90EF90DF90CF90CF
:10191000BF90AF909F908F907F906F905F904F900F
:101920000C948C092FEF3FEF4FE75FECC701B60136
:101930000E94912187FDE1CF20E030E0A901C7019D
:10194000B6010E94912110E000E087FF0AC06DE21D
:1019500088E99AE20E946F078C01F7FAF094F7F891
:10196000F094C0E060E070E080E09FE37C1641F01E
:1019700020E030E040E251E40E94E023CF5FF6CF68
:10198000A70196010E9474232B013C010E9452245E
:101990004B015C012AE0BC01A40188E99AE20E94A3
:1019A000770B7C01E00EF11ECC23D9F1C501B40107
:1019B0000E9496219B01AC01C301B2010E947323D6
:1019C0004B015C0169E878E988E99AE20E948C0998
:1019D000E80EF91EC15028F120E030E040E251E469
:1019E000C501B4010E94F7212B013C010E94522441
:1019F0004B01B12CA12C2AE0B501A40188E99AE29F
:101A00000E94770BE80EF91EC501B4010E949621D1
:101A10009B01AC01C301B2010E9473234B015C0125
:101A2000D9CFC701CF911F910F91FF90EF90DF9019
:101A3000CF90BF90AF909F908F907F906F905F906E
:101A40004F900895CF93DF9342E00E943F0CEC014A
:101A50000E949B098C0F9D1FDF91CF910895FF92EB
:101A60000F931F93CF93DF93EC01898190E1899FBE
:101A7000900111248881822B809381288B8111E031
:101A8000882321F08A818093822812E00E946D03CE
:101A90008B81882361F0809181288E7F80938128BB
:101AA00061E878E2812F0E9479030E946D038091A2
:101AB00081288160809381288B8161E878E2181BFE
:101AC000812F0E9479038A85811187C0FC800D8156
:101AD0000884D985C02D1C2FF894DD27AE0170E055
:101AE00060E08F2D902F0E947B2680912004887FBC
:101AF00080932004EF2DF02F90E080E063E075E00C
:101B0000ADE32197BFE101E1811708F04CC028E067
:101B100030E040E8509120045760509320045091E9
:101B20002404587F50932404562F5A9501F0E9F766
:101B3000C89550912004587F50932004572F5A95F0
:101B400001F0E9F7C89550912804577019F05081B9
:101B5000542B50835A2F5A9501F0E9F7C8954695B2
:101B60002150310909F0D6CF8C179D07CCF4209174
:101B7000200427602093200420912404287F2093B0
:101B800024042B2F2A9501F0E9F7C8952091200411
:101B9000287F20932004202F2A9501F0E9F7C8958B
:101BA00001963196B1CF8091200487608093200404
:101BB00080912404887F8093240485E08A9501F035
:101BC000E9F7C89580912004887F8093200487E3FB
:101BD0008A9501F0E9F7C89578940E946D0380E03A
:101BE000DF91CF911F910F91FF9008954F925F92D7
:101BF0006F927F928F929F92AF92BF92CF92DF921D
:101C0000EF92FF920F931F93CF93DF93CDB7DEB781
:101C10004C014DB65EB680EBE82E81E0F82E10E068
:101C200000E09FE1692E712CCDB6DEB6F701A590DC
:101C3000B490C5010E9448219C012F5F3F4F4DB7D2
:101C40005EB7421B530B4DBF5EBF6DB77EB76F5F74
:101C50007F4F860F971FDB01A61AB70AA817B9078F
:101C600031F0F501EA0FFB1FE491ED93F7CF1C92E1
:101C7000C4010E948226892BF9F4CDBEDEBE380154
:101C80000F5F1F4F52E0E50EF11C0032110561F6A7
:101C9000C3014DBE5EBEDF91CF911F910F91FF90AA
:101CA000EF90DF90CF90BF90AF909F908F907F90FC
:101CB0006F905F904F900895CDBEDEBEE1CF4F9202
:101CC0005F926F927F928F929F92AF92BF92CF92CC
:101CD000DF92EF92FF920F931F93CF93DF93CDB7D5
:101CE000DEB72B97CDBFDEBF8B01FB0182809380D7
:101CF000F12CE12C9AE0592E44244394F801C2803F
:101D0000D380A480B58036016A0C7B1C86149704AE
:101D100008F04BC07501E818F908F9E0EF16F10476
:101D20001CF088E0E82EF12CF80180815A8289832A
:101D30008B824C821F821886C701992789879A87D0
:101D4000C4010896800F911F8D839E831B86EE2011
:101D500031F0CE0101960E942F0D811106C0F801CD
:101D6000168217828E0C9F1CC9CF82EF90E0F8017B
:101D70008683978362EE73E988EF93E90E94BE0A37
:101D80008FEF2B96CDBFDEBFDF91CF911F910F91CB
:101D9000FF90EF90DF90CF90BF90AF909F908F908B
:101DA0007F906F905F904F900895C50101960E94BB
:101DB0008B24F801E85FFE4F80839183D60118964B
:101DC000A00FB11FFC01A80EB91EEA15FB0519F002
:101DD0008D918193FACF1082F801EC0DFD1D88E8FA
:101DE00090E08E199F09C614D704C8F43085EE0D13
:101DF000FF1DDF01A80FB91F2C91321769F04AE0CF
:101E0000BE016F5F7F4FC6010E945121BE016F5F0F
:101E10007F4F86E194E9B2CFCE0CDF1CE4CF82E69F
:101E200094E90E94AF0A6AE070E080E090E00E94CE
:101E3000890680E0A6CF8F929F92AF92BF92CF92F9
:101E4000DF92EF92FF920F931F93CF93DF93CDB763
:101E5000DEB7C751D140CDBFDEBF7C015A01690159
:101E60008FEF90E089839A831F821886C75FDE4FC9
:101E700018821982C950D140C55FDE4F188219827D
:101E8000CB50D1406B837C832D833E83F70112813D
:101E90001F3F09F094C00E940204082F8F3F31F4C5
:101EA00067E874E98AE994E90E94BE0A802F90E00D
:101EB00089839A830F3FC1F466EB74E98EEC94E951
:101EC0000E94BE0A812FC95EDE4FCDBFDEBFDF910B
:101ED000CF911F910F91FF90EF90DF90CF90BF9027
:101EE000AF909F908F900895F70102838D819E811E
:101EF0006AEF74E9009709F469C0EB80FC808E0DED
:101F00009F1D8138910508F05FC08AE0982E8824D3
:101F100083948D819E812B813C81280F391FE2168D
:101F2000F30608F06EC08C010E191F090930110567
:101F300014F008E010E08981C25FDE4F9882CE5035
:101F4000D140C35FDE4F8883CD50D140C15FDE4FAB
:101F5000E882CF50D140C05FDE4F8882C051D1406F
:101F6000CD5EDE4F18821982C351D140C801992736
:101F7000CB5EDE4F88839983C551D140C701089657
:101F800021E030E02C0F3D1F820F931FCF5EDE4F0C
:101F900088839983C151D140C95EDE4F1882C751F1
:101FA000D140002339F0CE01835F9E4F0E942F0D58
:101FB000811120C01F821886E00EF11EAACF812F4A
:101FC00090E089839A8392CF62E575E98AE395E987
:101FD0000E94BE0AC75FDE4FA881B981C950D140B7
:101FE000F501CA0EDB1ECA16DB0609F46FC08D911F
:101FF0008193F9CF82EF90E08F83988762EE73E947
:10200000E5CF01960E948B24C75FDE4F88839983BA
:10201000C950D14030E020E04D815E81C75FDE4F86
:1020200088819981C950D1402417350790F4EB81FC
:10203000FC8141E050E04C0F5D1FE40FF51FE20F03
:10204000F31F4085820F931FFC0140832F5F3F4F9A
:10205000E3CF840F951FFC0110828BE795E90E9466
:10206000AA0A10E000E08D819E810817190780F40C
:10207000C75FDE4FE881F981C950D140E00FF11F01
:10208000608188E99AE20E946F070F5F1F4FEBCFD4
:1020900081E995E90E94AA0A8D819E810E94B90B6F
:1020A00081EA95E90E94AA0A4B815C8170E060E0B8
:1020B00020E188E99AE20E94770B0E949B096AE07E
:1020C00070E080E090E00E94890684CF11E0FACEB3
:1020D0002F923F924F925F926F927F928F929F9238
:1020E000AF92BF92CF92DF92EF92FF920F931F9326
:1020F000CF93DF93CDB7DEB7CB50D440CDBFDEBF9B
:102100007C01C85FDB4F68837983C850D4402DB70A
:102110003EB7C65FDB4F28833983CA50D440DC0109
:102120001D921C92119712961D921C921397149651
:102130001D921C92159716961D921C921797189631
:102140001D921C921997CD5FDB4F1882C350D4406B
:102150002BE0A22EB12C512C412CFE013196CF5FE9
:10216000DB4FE883F983C150D44001E010E00C0F4D
:102170001D1F040D151D6201F2E1AF16B10409F433
:102180000CC288E99AE20E940408782E63E070E0AD
:1021900080E090E00E94890646012FEF821A920AA1
:1021A000D8017D928D01BDE07B123EC088E99AE2A4
:1021B0000E940408182F63E070E080E090E00E9425
:1021C00089062601E2E04E0E511CE1E0F0E0EC0F42
:1021D000FD1FE80DF91D10831A3039F62DB73EB7F3
:1021E000CC5FDB4F28833983C450D440C4010196AF
:1021F000ADB7BEB7A81BB90BADBFBEBF0DB71EB7FD
:102200000F5F1F4FD801FE013196CF01CF5FDB4F2B
:1022100028813981C150D440821B930B84159505C8
:1022200028F481918D93F1CF6401A6CFF801E80DD8
:10223000F91D1082560133E0A30EB11CC5010E94A6
:102240008B24DC01F80122E0C20ED11C9F01201B6F
:10225000310B2C153D0518F421912D93F7CFFC017E
:10226000EA0DFB1D1082D70118968D939C93199748
:10227000EDB7FEB7CA5FDB4FE883F983C650D440A1
:102280006EE170E080E090E00E948906CD5FDB4F58
:10229000F881C350D440FF2389F0F8013F01601A50
:1022A000710A81918D32D1F780818536B9F78181AC
:1022B0008E36A1F78281843689F707C0F8013F0185
:1022C000601A710A81918D32D1F7D8018C918436D0
:1022D00099F411968C911197813671F412968C9124
:1022E000843751F4B1E0CD5FDB4FB883C350D440A5
:1022F000F8018381813629F0CD5FDB4F1882C3500E
:10230000D4401801260C371C2114310421F485EB2C
:1023100095E90E94AF0A6301FFEFCF1ADF0A2DB7DC
:102320003EB72C193D092DBF3EBF8DB79EB7019614
:102330005C01DC01F801CF01801B910B8C159D0520
:1023400018F481918D93F7CFF501E60DF71D1082FA
:10235000D7018D919C911197892B19F5F501019069
:102360000020E9F7CF018A199B090E948B24D7012D
:102370008D939C93BC01F501D5010D900020E9F7E8
:102380009D01215031092A193B09AF014A195B0906
:102390004217530708F05AC02191DB012D93BD016C
:1023A000EBCF12968D919C911397892B21F5F50116
:1023B00001900020E9F7CF018A199B090E948B2424
:1023C000D70112968D939C931397BC01F501D5010B
:1023D0000D900020E9F79D01215031092A193B0990
:1023E000AF014A195B094217530780F52191DB01C0
:1023F0002D93BD01ECCF14968D919C911597892B4F
:1024000009F04FC0F50101900020E9F7CF018A19CA
:102410009B090E948B24D70114968D939C9315974A
:10242000BC01F501D5010D900020E9F79D01215077
:1024300031092A193B09AF014A195B0942175307B1
:1024400028F42191DB012D93BD01ECCF820F931F66
:10245000FC01108281010F5F1F4FC20CD31C96013B
:102460002F5F3F4F5301FFEFAF1ABF0AD6018C9188
:102470008D30D9F5C114D10421F485EB95E90E9482
:10248000AF0A4101860C971CBFEF8B1A9B0A8C1474
:102490009D0471F163E070E080E090E00E948906A5
:1024A000F3CF16968D919C91892BA1F6C85FDB4FD7
:1024B000E881F981C850D440C082D182C30102961C
:1024C0000E948B24D70116968D939C931797DC015D
:1024D000F5019F012A193B092C153D0518F421919E
:1024E0002D93F7CF8C0D9D1DB3CF69013501B7CF6B
:1024F0002A0C3B1C680C791C62187308A80CB91CC8
:10250000A218B308EDB7FEB7EA19FB09EDBFFEBF8D
:102510002DB73EB72F5F3F4F6901D801F901CF01B9
:102520008C199D098A159B0518F48D918193F7CF1D
:102530006C0C7D1CD3011C926CE473E9C6010E94F3
:102540008226892B39F06DEC75E9C6010E9482263E
:10255000892BF9F492E1A92EB12C63E070E080E0C0
:1025600090E00E948906CA5FDB4FE881F981C6507E
:10257000D440EDBFFEBFF2E1AF16B10409F078CE52
:10258000CC5FDB4F28813981C450D4402DBF3EBF82
:10259000ECCD8FE1A82EB12CE0CFC701C65FDB4F99
:1025A000A881B981CA50D440ADBFBEBFC55FDB4F63
:1025B000CDBFDEBFDF91CF911F910F91FF90EF90C4
:1025C000DF90CF90BF90AF909F908F907F906F9053
:1025D0005F904F903F902F900895CF92DF92EF92AF
:1025E000FF920F931F93CF93DF93EB018C819D811B
:1025F00062ED75E9009709F445C0EA80FB808E0D15
:102600009F1D8138910508F03BC08FE1C82E8EE4F4
:10261000D82E0C811D818A819B81800F911FE81625
:10262000F90608F03DC00E191F090930110514F014
:1026300008E010E08881806A8E7F80938128E09294
:102640008228A8015527B70168577F4F6C0F7D1F5F
:1026500083E898E20E9472260E946D0361E878E2A6
:1026600082E0800F0E9479030E946D03C6010197EA
:10267000F1F7000000C01E821F82E00EF11EC9CFDC
:1026800067EF75E98EED95E90E94BE0A8FEFDF9145
:10269000CF911F910F91FF90EF90DF90CF90089511
:1026A0008DE196E90E94AA0AFE01E65FFE4F808155
:1026B00091810E94AA0A84E396E90E94AA0A8C8169
:1026C0009D810E94B90B81EA95E90E94AA0A4A817C
:1026D0005B8170E060E020E188E99AE20E94770B7C
:1026E0000E949B096AE070E080E090E00E94890609
:1026F00080E0CDCF8F929F92AF92BF92CF92DF9228
:10270000EF92FF920F931F93CF93DF93CDB7DEB776
:10271000C851D240CDBFDEBF8C015B017A01690197
:10272000CB01820F931F81389105D0F062E476E9E6
:1027300086E696E90E94BE0AFF24FA948F2DC85EB1
:10274000DD4FCDBFDEBFDF91CF911F910F91FF9085
:10275000EF90DF90CF90BF90AF909F908F900895B3
:10276000C90101960E948B244C01F701C5018857CD
:102770009F4F2DE031E02C0F3D1F820F931FB401BE
:10278000A7014C0D5D1D4E175F0741F02191DC0143
:102790002D93CD01DB012D93BD01F5CFF801F28022
:1027A000FFEF8F2D90E0FF121BC00E940204E82E65
:1027B0002FEF821306C067E874E98AE994E90E9462
:1027C000BE0A8E2D90E03FEFE31207C066EB74E97E
:1027D00086E696E90E94BE0AB1CFD8011296EC9225
:1027E0000C5F1F4FC35FDE4F88839983CD50D1406C
:1027F000C15FDE4FA882B982CF50D140CF5EDE4F9D
:10280000C882D982C151D140CD5EDE4F1882198273
:10281000C351D140CB5EDD4F18821982C551D240E1
:10282000C95EDD4F8882C751D240C85EDD4F9882B5
:10283000C851D2408CE091E0FE01E35FFE4FDE0123
:10284000119601900D920197E1F7BE016F5F7F4FE6
:10285000C8010E94ED128CE091E0FE01E35FFE4FA3
:10286000DE01119601900D920197E1F7BE016F5FB5
:102870007F4FC8010E945F0EFF24F3945FCF0F9338
:102880001F93CF93DF93EC0188819981009759F0D2
:102890002A813B812617370730F081E0DF91CF9105
:1028A0001F910F9108958B016F5F7F4F0E94B0259C
:1028B000009759F0888399830A831B832C813D817B
:1028C000232B59F7FC011082E8CF80E0E7CFCF93AC
:1028D000DF93EC01188219821A821B821C821D82EE
:1028E00070E060E00E943F142881398181110FC09F
:1028F0002115310519F0C9010E9427251882198276
:102900001C821D821A821B82DF91CF9108951C8246
:102910001D826AE373E9C901DF91CF910C948B2684
:10292000EF92FF920F931F93CF93DF9300D0CDB719
:10293000DEB78C0169831A82FC01E480F580FFEF29
:10294000EF1AFF0AB7010E943F14882381F0F801B3
:102950002081318184819581BE016F5F7F4F820F1D
:10296000931F0E948B26F801E482F58281E00F908C
:102970000F90DF91CF911F910F91FF90EF900895ED
:102980000E946D261F920F920FB60F9211242F9363
:102990003F934F935F936F937F938F939F93AF93E7
:1029A000BF93CF93EF93FF93C091AB08C2FF0AC0D0
:1029B0001092DB291092DA291092D92984E00E9422
:1029C000800114C0C6FF2FC08091D829813051F4F6
:1029D0008091DB29E091D629F091D72990E00995E3
:1029E0001092D829C0FF14C00E949001FF91EF916E
:1029F000CF91BF91AF919F918F917F916F915F9197
:102A00004F913F912F910F900FBE0F901F901895EF
:102A100080E48093AB0881E00E9480018091AB0844
:102A200085FFE4CFE1CFC7FF5CC0C3FF08C01092B1
:102A3000DB291092DA291092D92983E0C0CF809146
:102A4000A90880668093A9088091AB0881FF2CC0FB
:102A50008091DA29882349F08091AB0884FF05C072
:102A600082E08093AA0881E0AACF9091DA29809130
:102A7000D9299817A8F4E091DA298091D129909169
:102A8000D229E80FF92FF11D80818093AD08809144
:102A9000DA298F5F8093DA2983E08093AA08A6CF92
:102AA00082E08093AA088BCF9091DB298091D52971
:102AB000981790F48091AD08E091DB292091D329FB
:102AC0003091D429E20FF32FF11D80838091DB290F
:102AD0008F5F8093DB29E0CF86E08093AA0882E0B5
:102AE0006ECF85E06CCF1F920F920FB60F9211241C
:102AF0002F933F938F939F93EF93FF938091A5081C
:102B0000982F9C70E1F08091A50894E082FF93E0FB
:102B10009093E6298093A50881E090E08093DC29DA
:102B20009093DD291092E729FF91EF919F918F916A
:102B30003F912F910F900FBE0F901F90189586FF19
:102B40004EC02091E3299091E2298091A50884FF4D
:102B500015C08091DF29882379F083E08093A40851
:102B600085E08093E6291092E72981E090E0809348
:102B7000DC299093DD29D8CF81E0F0CF8091E12945
:102B8000821790F4E091E1298091E4299091E52960
:102B9000E80FF92FF11D80818093A8088091E12929
:102BA0008F5F8093E129C0CF8091E029891760F47D
:102BB00084E090E08093DC299093DD298091DE29E8
:102BC00081608093A708B0CF8091DF29882329F006
:102BD00083E08093A40881E0C4CF81E0FACF87FF2F
:102BE00040C09091E0298091E2299817D8F4809113
:102BF000A808E091E0292091CF293091D029E20F57
:102C0000F32FF11D80838091E0298F5F8093E0296D
:102C10009091E2298091E0298917D8F482E080938D
:102C2000A40882CF8091DF29882389F087E08093F0
:102C3000A40882E08093E6291092E72981E090E0E1
:102C40008093DC299093DD291092E2296DCF85E0F5
:102C5000EECF8091DF29882311F087E0BACF85E09D
:102C6000B8CF86E07ECF1F920F920FB60F9211243D
:102C70002F933F934F935F936F937F938F939F9384
:102C8000AF93BF9340917528509176286091772833
:102C900070917828809173289091742820917128E0
:102CA00030917228420F531F611D711D20916F28B2
:102CB00030917028820F931F883E23E0920730F0F6
:102CC000885E93404F5F5F4F6F4F7F4F80937328B5
:102CD00090937428409375285093762860937728B2
:102CE0007093782880917D2890917E28A0917F28EC
:102CF000B09180280196A11DB11D80937D289093ED
:102D00007E28A0937F28B093802881E08093B60A24
:102D1000BF91AF919F918F917F916F915F914F91F3
:102D20003F912F910F900FBE0F901F9018951F92FB
:102D30000F920FB60F9211242F933F934F935F93EF
:102D40006F937F938F939F93AF93BF93EF93FF9373
:102D500085E00E94A607FF91EF91BF91AF919F91EF
:102D60008F917F916F915F914F913F912F910F9034
:102D70000FBE0F901F9018951F920F920FB60F92D3
:102D800011242F933F934F935F936F937F938F9370
:102D90009F93AF93BF93EF93FF9384E00E94A607A6
:102DA000FF91EF91BF91AF919F918F917F916F9123
:102DB0005F914F913F912F910F900FBE0F901F90F9
:102DC00018951F920F920FB60F9211242F933F93D5
:102DD0004F935F936F937F938F939F93AF93BF9323
:102DE000EF93FF9383E00E94A607FF91EF91BF91BD
:102DF000AF919F918F917F916F915F914F913F9193
:102E00002F910F900FBE0F901F9018951F920F9249
:102E10000FB60F9211242F933F934F935F936F93AD
:102E20007F938F939F93AF93BF93EF93FF9382E032
:102E30000E94A607FF91EF91BF91AF919F918F9153
:102E40007F916F915F914F913F912F910F900FBEA6
:102E50000F901F9018951F920F920FB60F9211248A
:102E60002F933F934F935F936F937F938F939F9392
:102E7000AF93BF93EF93FF9381E00E94A607FF916A
:102E8000EF91BF91AF919F918F917F916F915F91E2
:102E90004F913F912F910F900FBE0F901F9018955B
:102EA0001F920F920FB60F9211242F933F934F93BF
:102EB0005F936F937F938F939F93AF93BF93EF93A2
:102EC000FF9380E00E94A607FF91EF91BF91AF9121
:102ED0009F918F917F916F915F914F913F912F9132
:102EE0000F900FBE0F901F9018951F920F920FB664
:102EF0000F9211242F933F934F935F936F937F9380
:102F00008F939F93AF93BF93EF93FF938FEF99E2CC
:102F10000E94C908FF91EF91BF91AF919F918F914E
:102F20007F916F915F914F913F912F910F900FBEC5
:102F30000F901F9018951F920F920FB60F921124A9
:102F40002F933F934F935F936F937F938F939F93B1
:102F5000AF93BF93EF93FF938FEF99E20E94DC074B
:102F6000FF91EF91BF91AF919F918F917F916F9161
:102F70005F914F913F912F910F900FBE0F901F9037
:102F800018951F920F920FB60F9211242F933F9313
:102F90004F935F936F937F938F939F93AF93BF9361
:102FA000EF93FF9388E99AE20E94C908FF91EF919D
:102FB000BF91AF919F918F917F916F915F914F9151
:102FC0003F912F910F900FBE0F901F9018951F9259
:102FD0000F920FB60F9211242F933F934F935F934D
:102FE0006F937F938F939F93AF93BF93EF93FF93D1
:102FF00088E99AE20E94DC07FF91EF91BF91AF91BF
:103000009F918F917F916F915F914F913F912F9100
:103010000F900FBE0F901F9018951F920F920FB632
:103020000F9211248F939F93AF93BF9380910B289E
:1030300090910C28A0910D28B0910E28892B8A2BF5
:103040008B2B79F180910A2880B980910B2890917F
:103050000C28A0910D28B0910E28181619061A06F2
:103060001B069CF480910B2890910C28A0910D28B0
:10307000B0910E280197A109B10980930B28909374
:103080000C28A0930D28B0930E2881E08093960A17
:10309000BF91AF919F918F910F900FBE0F901F9096
:1030A000189580910B2890910C28A0910D28B09133
:1030B0000E28892B8A2B8B2B41F71092950A1092A0
:1030C000900AE3CFE8EEF9E21282138288EE93E0F1
:1030D000A0E0B0E084839583A683B7832AEF32E92A
:1030E00020833183E4EFF9E224E030E02083318370
:1030F000128213821682178211861286EFEFF9E28E
:103100001282138284839583A683B78322E233E9F4
:103110002083318340E258E044875587168641E09A
:10312000478744E0408B128A138A148A158A4BE140
:10313000468B178A108EE8E9FAE2128213828483A2
:103140009583A683B7832083318380E698E08487C4
:10315000958788E1868789E1878780E4808B128A5A
:10316000138A148A158A86E2868B178A108E089530
:10317000CF93DF93CDB7DEB7CC54D109CDBFDEBF3F
:1031800088ED90E084BF9093610080E094E2A4EF2A
:10319000B0E08093002890930128A0930228B09378
:1031A00003288091020686608093020680910006C3
:1031B000816080930006809102068F7C80930206D6
:1031C0008091A0008F788093A0008091020680619A
:1031D000809302061092E20581E08093E40583E08B
:1031E0008093010A8FEF90E08093260A9093270A3C
:1031F00080E890E08093380A9093390A80933A0AE5
:1032000090933B0A80933C0A90933D0A8BE0809315
:10321000000A8091E50581608093E5058091E505D0
:1032200082608093E505E0E8FAE027E0FF24FA9465
:1032300090E885E02183F486958780837096E03C52
:103240003AE0F307B9F780E094E080937B2890930D
:103250007C2880917B2890917C282FEF30E0B90169
:103260000E9459236093792870937A2880917B2853
:1032700090917C28E8EEF3E0BF010E94592360930F
:1032800071287093722880917B2890917C28BF01CF
:103290000E94592380936F28909370282093BC0A32
:1032A0003093BD0A8091B50A81608093B50A84E0AD
:1032B0008093B00A8091B00A81608093B00A7894BC
:1032C00040E052EC61E070E088E99AE20E948309F4
:1032D00080EE9EE2A0E0B0E080939C2A90939D2A2D
:1032E000A0939E2AB0939F2A40E052EC61E070E0E8
:1032F0008FEF99E20E9483096AE070E080E090E03D
:103300000E94890680E996E90E94AF0A85E090E074
:103310000E948B248C01DC011D921C921197129645
:10332000FC928093F8299093F929809102068F7C72
:10333000809302068091A0008F788093A0008091F6
:10334000020680628093020661E070E088E00E94DD
:103350008A0561E070E087E00E948A0561E070E024
:1033600086E00E948A0561E070E08CE00E948A0598
:1033700061E070E082E00E948A0570E060E08EE02B
:103380000E948A0570E060E08FE00E948A0561E09B
:1033900070E08CE00E94270570E060E086E00E940B
:1033A000270570E060E088E00E94270561E070E09A
:1033B00087E00E94270561E070E082E00E94270517
:1033C00061E070E084E00E948A0565E070E080E0E2
:1033D00090E00E9489060E9402048F3F09F0CFC04E
:1033E000F80182838AE693E90E94AF0A65E070E003
:1033F00080E090E00E94890665E070E080E090E067
:103400000E94890688E090E00E948B248C018AE764
:1034100092E9F801808391838FEF9FEF82839383FA
:103420008483958388EE99E20E94C00586E892E93C
:10343000D8018D939C930093FA291093FB2988EE71
:1034400099E20E94C00586E996E90E94AF0A2E0122
:10345000B1E44B0E511C8AE7682E82E9782E2224B3
:103460002A94322CFE0131967F0188E99AE20E946B
:103470002608181619060CF07AC06091F829709188
:10348000F929C2010E94681063E070E080E090E0DA
:103490000E948906D20112960D911C9113971696DF
:1034A000AD90BC9017978D919C910E94F60D6C0188
:1034B000C8010E94F60D8C01C114D10409F467C043
:1034C000CA94CD2809F4E1C01092FD29D2018D9053
:1034D0009C90119712960D911C91C4010E94F60DBB
:1034E0006C01C8010E94F60D1092FE29BEE1CB16B8
:1034F000D10411F5C8010E9421216C018FEF99E2DE
:103500000E945F098FEF99E20E94320864E670E042
:1035100080E090E00E948906A6010D2C000C660B4D
:10352000770B8FEF99E20E94830985E197E90E946A
:10353000AA0AC6010E94ED0B8091FD29811117C0D6
:103540008091FE29811113C0C090F429D090F529F3
:10355000E2E0CE16D10409F49BC308F0E3C0C11425
:10356000D10409F4F2C1CA94CD2809F41EC180E047
:1035700090E0892B09F479CF0E94000076CFD80122
:1035800012968C9385EA93E90E94AF0A35CFDD2429
:10359000D394D092FD298F31910509F497CF8431CE
:1035A000910509F068C070E060E08FE00E948A0534
:1035B0006AE070E080E090E00E94890682E08093FB
:1035C0000606D092080680910B0680FFFCCF9FB7BD
:1035D000F89480911006609111069FBF762F682F96
:1035E000072E000C880B990B0E9498214B015C015F
:1035F0006AE070E080E090E00E9489068DEA96E93A
:103600000E94AA0AC501B4010E94220D2FE632E1F0
:1036100043E55BE3C501B4010E94F7214B015C0166
:103620008DEB96E90E94AA0AC501B4010E94220D01
:1036300029E639E649E650E4C501B4010E94F721C4
:103640004B015C0185EC96E90E94AA0AC501B40110
:103650000E94220D8DEC96E90E94AA0AC8010E94E0
:10366000ED0B83ED96E90E94AA0A42E0C501B40180
:103670000E943F0C2BCF812C912C5401439751F782
:103680000E942F064B015C01E5CF81E08093FD296C
:10369000C5010E9421216C0180EE96E90E94AF0ACB
:1036A0000F311105A9F00431110591F561E070E0C9
:1036B0008FE00E948A0561E070E08FE00E948A0539
:1036C0001C141D04C4F070E060E08FE00E94270528
:1036D00082EF96E90E94AA0AC8010E94B90B8CEFFA
:1036E00096E90E94AA0AC6010E94B90B85E097E9F3
:1036F0000E94AF0AEBCEEFEFCE16D10421F01CF002
:1037000061E070E0E2CFF0E8CF16D104CCF7DBCF78
:103710000B32F0F661E070E0802F0E948A05B6015E
:10372000802FD4CF33E0C316D10409F416C284E04D
:10373000C816D10409F01BCFC4010E94F60D6C011C
:10374000C8010E94F60DA5E1CA16D10459F58731CA
:10375000910591F08831910508F023C1469709F051
:1037600050C0E1E0F0E0E093F429F093F5298AE21B
:1037700097E90E94AF0A6DC08091F8299091F929CC
:103780000E945C0B1092F4291092F52984E497E9C9
:10379000F0CF22E030E02093F4293093F5298DE535
:1037A00097E9E7CF80EE97E9E4CFD2011696AD9086
:1037B000BC9017971896CD90DC90C4010E94F60D2E
:1037C0004C01C8010E94F60DBEE08B16910409F46D
:1037D00057C038F4F5E08F169104B1F182E899E909
:1037E000C8CF2FE08216910409F46CC035E183162E
:1037F0009104A1F78731910509F4E2C128F44697B5
:1038000089F081E997E9B5CF88319105A1F0499711
:10381000C1F7E3E0F0E0E093F429F093F52981E7C4
:1038200098E9A7CF81E090E08093F4299093F5295F
:103830008FE198E99ECFA2E0B0E0A093F429B09385
:10384000F52989E598E995CF8330910549F00A97E4
:1038500071F063E070E080E090E00E94890687CE1E
:103860001092F6291092F7298BE898E982CF21E08F
:1038700030E02093F6293093F72989EA98E979CF47
:103880008BEC98E90E94AF0A8091F6299091F72974
:10389000009769F00197E9F6B6018FEF99E20E946F
:1038A000A20A88EF98E90E94AA0AC60162CFB50170
:1038B0008FEF99E20E94A20A82EE98E90E94AA0A7A
:1038C000C50157CF84E299E90E94AA0AC7010E9464
:1038D00067148FEF99E20E9426081816190604F55E
:1038E0008FEF99E20E940408182F682FC7010E94E9
:1038F00090141A3071F78BE399E90E94AA0AC70164
:103900000E94A1096AE070E080E090E00E948906D0
:103910004D815E8169817A818CE499E90E94EE0A89
:103920008091F6299091F729019739F481E599E979
:103930000E94AA0AC7010E94A10989819A81009761
:1039400009F487CF0E94272584CFD2011696CD9007
:10395000DC90C4010E94F60D5C01C8010E94F60DC6
:10396000BEE0AB16B10409F454C038F4FDE0AF1664
:10397000B10439F18FE19BE9FCCE2FE0A216B1042E
:1039800009F4B4C035E1A316B104A1F7873191055C
:1039900009F0E0CE1092F4291092F52989EB99E90B
:1039A000E8CE8831910509F4F4CE499709F029CF82
:1039B00083E090E08093F4299093F52986E797E9D6
:1039C000D8CE0E942F0620E030E040E650E40E946E
:1039D000912187FF17C08091F8299091F9290E94C1
:1039E0005C0B182F8AED99E90E94AA0A412F50E03A
:1039F00070E060E02AE088E99AE20E94770B0E947A
:103A00009B0927CF65EE79E988E09AE90E94BE0A12
:103A100020CFC8010E942121182F092F0E942F06B4
:103A200020E030E040E650E40E94912187FF57C03B
:103A30008091F8299091F929DC012D913C91A60102
:103A4000612F702F0E947A13811140C080E39AE9A0
:103A50000E94AA0A89E493E90E94AA0A80E49AE9EA
:103A60000E94AA0A88E79CE90E94AA0A63E070E023
:103A700080E090E00E9489068CE59AE90E94AA0AFB
:103A80008AE393E90E94AA0A8BE493E90E94AF0AB1
:103A900063E070E080E090E00E9489060F931F933E
:103AA000EFECFAE9FF93EF93FF92EF920E949226D8
:103AB000A70162ED7AE984EE9AE90E94280B0F9043
:103AC0000F900F900F900F900F90C3CE4AE353E9E1
:103AD00069E87AE989E99AE90E94280BDFCF65EE67
:103AE00079E984EB9AE90E94BE0AD8CFADB6BEB69A
:103AF000C8010E9421214C01C6010E9421218C0194
:103B00008DB79EB7801B910B8DBF9EBFADB7BEB763
:103B100011966D010E942F0620E030E040E650E44F
:103B20000E94912187FF12C09801A601B4018091E3
:103B3000F8299091F9290E941B0FA801B60180E095
:103B40009BE90E94EE0AADBEBEBE83CE65EE79E96A
:103B500084E09BE90E94BE0AF6CFF201C680D780BE
:103B6000C4010E94F60D5C01C8010E94F60DFEE042
:103B7000AF16B104C1F138F43DE0A316B10471F100
:103B80008FEC9BE9F6CDAFE0AA16B10409F44BC067
:103B9000B5E1AB16B104A1F78731910589F008F4BE
:103BA000DDCD8831910599F0499709F02ACE23E0BF
:103BB00030E02093F4293093F52985E59BE9D9CDB0
:103BC0001092F4291092F52981E498E9D2CDE2E02F
:103BD000F0E0E093F429F093F52933CE88E79BE9F0
:103BE0000E94AA0A36CE89E99BE90E94AF0A61E0E9
:103BF00070E084E00E942705B6018FEF99E20E94F1
:103C0000A20A63E070E080E090E00E94890663E031
:103C100070E080E090E00E94890670E060E084E05F
:103C20000E94270516CE81EB9BE90E94AA0AC701D4
:103C30000E94671470E060E084E00E9427058FEF27
:103C400099E20E942608181619060CF076CE8FEF1E
:103C500099E20E940408182F682FC7010E9490144F
:103C60001A3069F78BE399E90E94AA0AC7010E94FA
:103C7000A1096AE070E080E090E00E9489064D8131
:103C80005E8169817A8189EC9BE90E94EE0A55CEBA
:103C9000D2011696AD90BC90C4010E94F60D4C0165
:103CA000C8010E94F60DBFE08B16910409F4B8C05C
:103CB00068F4F9E08F16910409F43EC12EE08216F3
:103CC000910409F453C083E79DE953CD35E1831690
:103CD0009104D9F18AE188169104A9F7C8010E94DC
:103CE000F60DE091FA29F091FB29C280D3808C3146
:103CF000910509F443C18D31910509F462C14B97D7
:103D000009F082C188E090E00E948B248C01DC01E4
:103D10006D927C92119712962D923C921397149665
:103D20002D923C92159788EE99E20E94C00526E8F4
:103D300032E9F801208331830093FA291093FB299B
:103D4000C282D3828CEF9CE914CD8731910509F4AE
:103D500037CF08F403CD8831910509F026CEC09203
:103D6000F429D092F52987E09CE903CD88E29CE90B
:103D70000E94AA0AE091FA29F091FB29828193819D
:103D80000E94ED0BC090FA29D090FB29D601129623
:103D90008D919C9118161906E4F5C8010E94212105
:103DA000D601ED91FC910480F581E02DA501682FED
:103DB000C6010995C090FA29D090FB29C8010E943C
:103DC0002121D601ED91FC910680F781E02D97012C
:103DD00040E450E0682FC60109958AE79CE90E94FB
:103DE000AA0AE091FA29F091FB29828193810E942D
:103DF000B90B80E99CE90E94AA0A8701F801619148
:103E00008F0188E99AE20E946F0740165106B1F7C8
:103E1000F6CD6CE37CE98EE59CE90E94BE0ACACF30
:103E2000C090FA29D090FB29D60112968D919C91D1
:103E3000181619060CF079C0EDB7FEB72D96EEAF47
:103E4000FFAF2D97C5010E9421214C01F2E08F0E9A
:103E5000911CD60114968D929C921597EDB7FEB7E2
:103E6000E819F909EDBFFEBF2DB73EB72F5F3F4FF1
:103E70005901C8010E942121D601ED91FC910680D3
:103E8000F781E02D9501A401682FC60109950091E5
:103E9000FA291091FB29F801848195810E948B24D5
:103EA000D80116968D939C931797F501CF018A1927
:103EB0009B09A091FA29B091FB2914964D915C9130
:103EC000159716966D917C918417950730F4219182
:103ED000860F971FDC012C93E9CF81EA9CE90E94B1
:103EE000EE0A2D96EEADFFAD2D97EDBFFEBF85EA34
:103EF0009CE90E94AA0A10E000E0E091FA29F09102
:103F0000FB298481958102970817190708F077CD5E
:103F10000680F781E02DE00FF11F608188E99AE2C9
:103F20000E946F070F5F1F4FE8CF6CE37CE98EE5BF
:103F30009CE90E94BE0ADBCF50E040E070E060E008
:103F4000C8010E940A20161617069CF4E091FA296F
:103F5000F091FB296283738381EC9CE90E94AA0A99
:103F6000E091FA29F091FB29828193810E94ED0B67
:103F700070CC69ED7CE98EE59CE948CD88E090E065
:103F80000E948B248C01DC016D927C921197129619
:103F90002D923C92139714962D923C92159788EE91
:103FA00099E20E94C0052EE632E9F80120833183B0
:103FB0000093FA291093FB29C282D38285E19DE9FF
:103FC000D8CB88E090E00E948B248C01DC016D92BC
:103FD0007C92119712962D923C92139714962D92E3
:103FE0003C92159788EE99E20E94C0052EE632E9D0
:103FF000F801208331830093FA291093FB29C282B0
:10400000D3828FE29DE9B5CBEF2B09F022CC69E496
:104010007DE9B1CFB0E0A0E0E0E1F0E20C941A233A
:104020005C016B017A016115710519F0FB01808358
:104030009183E114F10451F0C7010297839730F0A6
:1040400040E030E020E090E072C05E01E5012196A2
:10405000F5011081812F90E00E943F21892BA9F763
:104060001D3201F52196F501118101E0E114F10401
:1040700009F4DAC0F0E1EF16F10409F082C0103360
:1040800059F488818F7D883509F076C01981229690
:104090000260F0E1EF2EF12C812C912CA12C88E014
:1040A000B82E8CC01B3221F4E5012296F501118156
:1040B00000E0DCCFEAE0EE16F10409F4BBC0F0E169
:1040C000EF16F10409F06DC0E7CF78E0E72EF12C90
:1040D000812C912CA12C60E1B62E70C03FE9310FEC
:1040E0003A3128F439EA332E80C021E09AC0302FCB
:1040F0003170C114D10431F0222309F12197F60166
:10410000C083D18327FF21C060E070E080E090E8A9
:10411000311104C06FEF7FEF8FEF9FE722E230E0B5
:104120002093312B3093322B462F372F282F642F9B
:10413000732F822FCDB7DEB7E1E10C94332301FF5B
:1041400004C02297F601C083D183332341F09095B8
:104150008095709561957F4F8F4F9F4FE5CF97FF6B
:10416000E3CF82E290E08093312B9093322B6FEF7C
:104170007FEF8FEF9FE7D8CF10E3E114F10409F44C
:10418000A4CF28E0E216F10409F4A2CF0CF092CFFC
:10419000812C912CA12CE0E4BE2E82E0E816F104E3
:1041A00069F060E070E080E090E897010F2C000C6F
:1041B000440B550B0E94C52249015A0120E060E0E2
:1041C00070E0CB0127010F2C000C66087708FE0178
:1041D00050ED352E310E39E0331540F43FEB310F01
:1041E0003A3108F07BCF49EC342E310E3E141F04D7
:1041F0000CF07DCF27FD15C086169706A806B906D8
:1042000078F0A30192010E94B522630D711D811DFA
:10421000911D61307105810520E8920708F465CF92
:104220002FEF21961081D3CF103309F42ACF2AE043
:10423000E22EF12C9CEC892E982CA82C9CE0B92E17
:10424000BDCFFC0188279927E89421912032E9F31A
:10425000293010F02E30C8F32B3241F02D3239F4D2
:10426000689404C00E945C21820F911D219120530B
:104270002A30C0F31EF4909581959F4F08959111B7
:104280000C947E21803219F089508550C8F708952A
:10429000FC0105900020E9F7809590958E0F9F1FF7
:1042A0000895BB274A3031F4992322F4BDE290955A
:1042B00081959F4F0C9465217AE0979F902D879F61
:1042C000802D910D11240895BB27FB015527AA27A6
:1042D000880F991FAA1FA41710F0A41B8395505193
:1042E000B9F7A05DAA3308F0A95DA193009779F70B
:1042F000B111B1931192CB010C9481219927882798
:104300000895DC01FC01672F71917723E1F7329763
:1043100004C07C916D9370836291AE17BF07C8F3A0
:1043200008950E94D32108F481E00895E89409C01B
:1043300097FB3EF490958095709561957F4F8F4FD8
:104340009F4F9923A9F0F92F96E9BB279395F695EE
:10435000879577956795B795F111F8CFFAF4BB0F6C
:1043600011F460FF1BC06F5F7F4F8F4F9F4F16C0D0
:10437000882311F096E911C0772321F09EE8872F5A
:10438000762F05C0662371F096E8862F70E060E016
:104390002AF09A95660F771F881FDAF7880F96958F
:1043A000879597F90895990F0008550FAA0BE0E833
:1043B000FEEF16161706E807F907C0F012161306E7
:1043C000E407F50798F0621B730B840B950B39F427
:1043D0000A2661F0232B242B252B21F408950A268D
:1043E00009F4A140A6958FEF811D811D08950E94BB
:1043F0000A220C947B220E946D2238F00E947422C3
:1044000020F0952311F00C9464220C946A2211245C
:104410000C94AF220E948C2270F3959FC1F3950FEC
:1044200050E0551F629FF001729FBB27F00DB11D38
:10443000639FAA27F00DB11DAA1F649F6627B00DC8
:10444000A11D661F829F2227B00DA11D621F739FB1
:10445000B00DA11D621F839FA00D611D221F749FBF
:104460003327A00D611D231F849F600D211D822F06
:10447000762F6A2F11249F5750409AF0F1F088232D
:104480004AF0EE0FFF1FBB1F661F771F881F91505A
:104490005040A9F79E3F510580F00C9464220C9483
:1044A000AF225F3FE4F3983ED4F386957795679506
:1044B000B795F795E7959F5FC1F7FE2B880F911D84
:1044C0009695879597F9089597F99F6780E870E02A
:1044D00060E008959FEF80EC089500240A9416167A
:1044E000170618060906089500240A9412161306E2
:1044F000140605060895092E0394000C11F4882370
:1045000052F0BB0F40F4BF2B11F460FF04C06F5F8B
:104510007F4F8F4F9F4F089557FD9058440F551F61
:1045200059F05F3F71F04795880F97FB991F61F035
:104530009F3F79F087950895121613061406551FAC
:10454000F2CF4695F1DF08C0161617061806991F18
:10455000F1CF86957105610508940895E894BB270D
:1045600066277727CB0197F90895DB018F939F93F7
:104570000E940623BF91AF91A29F800D911DA39F22
:10458000900DB29F900D11240895A1E21A2EAA1B3E
:10459000BB1BFD010DC0AA1FBB1FEE1FFF1FA217F3
:1045A000B307E407F50720F0A21BB30BE40BF50BF0
:1045B000661F771F881F991F1A9469F76095709579
:1045C000809590959B01AC01BD01CF010895052E0A
:1045D00097FB1EF400940E94FE2257FD07D00E9414
:1045E000C52207FC03D04EF40C94FE225095409552
:1045F000309521953F4F4F4F5F4F0895909580958F
:10460000709561957F4F8F4F9F4F08950E944A2369
:10461000A59F900DB49F900DA49F800D911D112416
:104620000895B7FF0C9406230E940623821B930B68
:1046300008952F923F924F925F926F927F928F9246
:104640009F92AF92BF92CF92DF92EF92FF920F9321
:104650001F93CF93DF93CDB7DEB7CA1BDB0BCDBF64
:10466000DEBF09942A88398848885F846E847D84F7
:104670008C849B84AA84B984C884DF80EE80FD800A
:104680000C811B81AA81B981CE0FD11DCDBFDEBFA8
:10469000ED010895A29FB001B39FC001A39F700DCB
:1046A000811D1124911DB29F700D811D1124911D3A
:1046B0000895AA1BBB1B51E107C0AA1FBB1FA61769
:1046C000B70710F0A61BB70B881F991F5A95A9F7BB
:1046D00080959095BC01CD010895EE0FFF1F0590C8
:1046E000F491E02D09945058BB27AA270E948B23F0
:1046F0000C947B220E946D2238F00E94742220F0DC
:1047000039F49F3F19F426F40C946A220EF4E095D4
:10471000E7FB0C946422E92F0E948C2258F3BA170D
:10472000620773078407950720F079F4A6F50C94C7
:10473000AE220EF4E0950B2EBA2FA02D0B01B9017D
:1047400090010C01CA01A0011124FF27591B99F007
:10475000593F50F4503E68F11A16F040A22F232F13
:10476000342F4427585FF3CF469537952795A79563
:10477000F0405395C9F77EF41F16BA0B620B730B0A
:10478000840BBAF09150A1F0FF0FBB1F661F771F7B
:10479000881FC2F70EC0BA0F621F731F841F48F430
:1047A000879577956795B795F7959E3F08F0B0CFB9
:1047B0009395880F08F09927EE0F979587950895A0
:1047C0000E94F4230C947B220E94742258F00E94D1
:1047D0006D2240F029F45F3F29F00C9464225111BE
:1047E0000C94AF220C946A220E948C2268F39923C5
:1047F000B1F3552391F3951B550BBB27AA276217DD
:104800007307840738F09F5F5F4F220F331F441FE9
:10481000AA1FA9F335D00E2E3AF0E0E832D091501D
:104820005040E695001CCAF72BD0FE2F29D0660F0A
:10483000771F881FBB1F261737074807AB07B0E84D
:1048400009F0BB0B802DBF01FF2793585F4F3AF053
:104850009E3F510578F00C9464220C94AF225F3F88
:10486000E4F3983ED4F3869577956795B795F795D9
:104870009F5FC9F7880F911D9695879597F90895C1
:10488000E1E0660F771F881FBB1F6217730784075D
:10489000BA0720F0621B730B840BBA0BEE1F88F76C
:1048A000E09508950E94942288F09F5798F0B92FC0
:1048B0009927B751B0F0E1F0660F771F881F991F55
:1048C0001AF0BA95C9F714C0B13091F00E94AE2227
:1048D000B1E008950C94AE22672F782F8827B85F37
:1048E00039F0B93FCCF3869577956795B395D9F7AD
:1048F0003EF490958095709561957F4F8F4F9F4FB7
:1049000008950E94D32108F48FEF08950E94D321C7
:10491000880B990B08950F931F93CF93DF938230E9
:10492000910510F482E090E0E091352BF091362B68
:1049300030E020E0B0E0A0E0309799F42115310597
:1049400009F44AC0281B390B24303105D8F58A8177
:104950009B816115710589F1FB0182839383FE01BF
:1049600011C0408151810281138148175907E0F03D
:104970004817590799F4109761F012960C93129703
:1049800013961C933296CF01DF91CF911F910F9117
:1049900008950093352B1093362BF4CF2115310554
:1049A00051F04217530738F0A901DB019A01BD010C
:1049B000DF01F801C1CFEF01F9CF8093352B909340
:1049C000362BCDCFFE01E20FF31F8193919322503E
:1049D000310928833983D7CF2091332B3091342B61
:1049E000232B41F420910628309107282093332B64
:1049F0003093342B2091042830910528211531055E
:104A000041F42DB73EB74091082850910928241B46
:104A1000350BE091332BF091342BE217F307A0F420
:104A20002E1B3F0B2817390778F0AC014E5F5F4F04
:104A30002417350748F04E0F5F1F4093332B5093D8
:104A4000342B819391939FCFF0E0E0E09CCFCF9304
:104A5000DF930097E9F0FC01329712821382A09154
:104A6000352BB091362BED0130E020E01097A1F40A
:104A700020813181820F931F2091332B3091342B71
:104A80002817390709F061C0E093332BF093342BDA
:104A9000DF91CF910895EA01CE17DF07E8F54A814B
:104AA0005B819E0141155105B1F7E901EA83FB8362
:104AB00049915991C40FD51FEC17FD0761F480810E
:104AC00091810296840F951FE901888399838281E1
:104AD00093818A839B83F0E0E0E012968D919C9114
:104AE00013970097B9F52D913C911197CD0102963E
:104AF000820F931F2091332B3091342B28173907C5
:104B000039F6309751F51092352B1092362BA09331
:104B1000332BB093342BBCCFC283D38340815181DC
:104B2000840F951FC817D90761F44E5F5F4F8881C6
:104B30009981480F591F408351838A819B818283C9
:104B400093832115310509F0B0CFE093352BF09315
:104B5000362B9ECFFD01DC01C0CF12821382D7CF4E
:104B6000B0E0A0E0E6EBF5E20C941B238C0100978B
:104B700051F4CB010E948B248C01C801CDB7DEB764
:104B8000E0E10C943423FC01E60FF71F9C01225056
:104B90003109E217F30708F49DC0D901CD91DC91EA
:104BA0001197C617D70798F0C530D10530F3CE015D
:104BB00004978617970708F3C61BD70B2297C19354
:104BC000D1936D937C93CF010E942725D6CF5B01B3
:104BD000AC1ABD0A4C018C0E9D1EA091352BB091D4
:104BE000362B512C412CF12CE12C109731F5809172
:104BF000332B9091342B8815990509F05CC046162B
:104C0000570608F058C08091042890910528009715
:104C100041F48DB79EB74091082850910928841B14
:104C2000950BE817F90708F055C0E093332BF09384
:104C3000342BF90160837183A0CF8D919C911197E2
:104C400012966C90129713967C901397A815B9053D
:104C500059F56C0142E0C40ED11CCA14DB0420F1EA
:104C6000AC014A195B09DA011296159780F062824D
:104C7000738240835183D9016D937C93E114F104D5
:104C800071F0D7011296ED93FC93139776CF22968D
:104C90008C0F9D1FF90180839183F301EFCFE09387
:104CA000352BF093362B69CF4816590608F42C01A2
:104CB0007D01D3019ACFCB010E948B247C01009708
:104CC00049F0AE01B8010E947226C8010E94272552
:104CD000870153CF10E000E050CF81E090E0F894DE
:104CE0000C943329FB01DC0102C001900D9241506C
:104CF0005040D8F70895DC0101C06D9341505040F9
:104D0000E0F70895FB01DC018D91019080190110FD
:104D1000D9F3990B0895FB01DC0101900D9200205D
:104D2000E1F70895AEE0B0E0E8E9F6E20C9427235D
:104D30000D891E8986E08C8309831A838FEF9FE794
:104D40008D839E83AE01475E5F4F6F89788DCE0164
:104D500001960E94B5262F813885020F131FF80196
:104D600010822E96E4E00C944023ABE0B0E0EBEB35
:104D7000F6E20C9419237C013B018A01FC011682A6
:104D80001782838181FFC8C1CE0101965C01F701C2
:104D90009381F30193FD859193FF81913F018823D6
:104DA00009F453C1853239F493FD859193FF8191C4
:104DB0003F01853229F4B70190E00E94A528E7CF92
:104DC000912C212C312CFFE1F31538F08B3211F1AD
:104DD00090F4803209F1833229F137FC3CC020ED98
:104DE000280F2A3050F536FE20C08AE0989E200D0C
:104DF0001124922E06C08D3291F0803371F76894A1
:104E000030F8F30193FD859193FF81913F0181116A
:104E1000DACF21C0689431F8689432F8F2CF689400
:104E200033F8EFCF689434F8ECCFEAE02E9E200DF3
:104E30001124222E689435F8E4CF8E3229F436FC02
:104E400004C1689436F8DDCF8C3619F4689437F8CD
:104E5000D8CF8836B1F2982F9F7D95549330E0F0EB
:104E60008336A1F18337C1F1833509F063C028018E
:104E7000F2E04F0E511CF801C080D180692D70E026
:104E800036FC02C06FEF7FEFC6010E948F284C01F5
:104E9000689437F882010AC00C5F1F4FFFE3F98363
:104EA00088248394912C6501E89437F833FE2DC053
:104EB000522C8114910471F5552009F468CFB70183
:104EC00080E290E00E94A5285A94F6CFF8018081F4
:104ED00089830E5F1F4FE4CF2801F2E04F0E511C73
:104EE000F801C080D180692D70E036FC02C06FEF00
:104EF0007FEFC6010E949A284C018201D5CFB701ED
:104F000080E290E00E94A5282A942814190409F050
:104F1000B0F7CECFF60137FC859137FE81916F0156
:104F2000B70190E00E94A52851105A94F1E08F1A21
:104F30009108BFCF843619F0893609F077C0F8019F
:104F400037FE6BC060817181828193810C5F1F4F3E
:104F5000F32DFF763F2E97FF09C0909580957095B1
:104F600061957F4F8F4F9F4F689437F82AE030E06C
:104F7000A5010E94D528C82ECA188C2C432C36FEB9
:104F80000CC0E89440F8C91440F434FE05C032FC6B
:104F900003C0F32DFE7E4F2E892C44FE95C0FE01EA
:104FA000EC0DF11D8081803309F087C0242D297E0E
:104FB000422E842D8870582E43FC95C040FE8FC031
:104FC0009C2C821418F42C0C922C981844FE91C03E
:104FD000B70180E390E00E94A52842FE09C088E75F
:104FE00090E041FE02C088E590E0B7010E94A5284C
:104FF000C91408F48AC0CA94D12C9FEFC91AD90ADF
:10500000CA0CDB1CF60182916F01B70190E00E948F
:10501000A528AC14BD04B1F74FCF60817181072E74
:10502000000C880B990B0E5F1F4F92CFD32CE89486
:10503000D4F82AE030E0853739F1232D297FD22EAC
:105040008F3601F148F48835A9F0F7018681978100
:105050002B96E2E10C943223803749F08837A9F788
:10506000D4FE02C06894D2F820E130E00DC068940C
:10507000D4F8F6CF34FE03C0822F8660D82E20E10C
:1050800032E002C028E030E0F801D7FE0FC06081B6
:105090007181828193810C5F1F4FA5010E94D528E9
:1050A000C82ECA183D2CE89437F867CF608171810B
:1050B00090E080E00E5F1F4FF0CF42FC02C083946F
:1050C00078CF8394839475CF842D867809F471CF3B
:1050D000F6CFB70180E290E00E94A5288394821465
:1050E000C0F3512C73CF522C5818821408F46ECF91
:1050F000F8CF842D867809F47BCF8BE241FE80E2E5
:1051000047FC8DE2B70190E071CFB70180E390E0FA
:105110000E94A5289A946CCF8FEF9FEF99CFFC0146
:105120000590615070400110D8F7809590958E0FD2
:105130009F1F0895FC016150704001900110D8F745
:10514000809590958E0F9F1F08950F931F93CF9377
:10515000DF93182F092FEB018B8181FD09C01FEF11
:105160000FEF812F902FDF91CF911F910F91089515
:1051700082FF14C02E813F818C819D8128173907C1
:105180003CF4E881F981CF010196888399831083EB
:105190008E819F8101968E839F83E3CFE885F98579
:1051A000812F0995892BA1F3DACFFA01AA2728309C
:1051B00051F1203181F1E8946F936E7F6E5F7F4FE4
:1051C0008F4F9F4FAF4FB1E03ED0B4E03CD0670F60
:1051D000781F891F9A1FA11D680F791F8A1F911DB3
:1051E000A11D6A0F711D811D911DA11D20D009F403
:1051F00068943F912AE0269F11243019305D319345
:10520000DEF6CF010895462F4770405D4193B3E02D
:105210000FD0C9F7F6CF462F4F70405D4A3318F0D4
:10522000495D31FD4052419302D0A9F7EACFB4E085
:10523000A6959795879577956795BA95C9F700973D
:105240006105710508959B01AC010A2E06945795DE
:10525000479537952795BA95C9F7620F731F841F35
:0A526000951FA01D0895F894FFCFDC
:10526A0000000000CB04A404B4097204000000008A
:10527A00C014C014C014C0140000000016056E0A41
:10528A00B906E40400000003000102000001010065
:10529A0000000000000000000000000000000504FB
:1052AA0000050602040103000100010203020100D5
:1052BA0002030405020305040202000502010500B7
:1052CA0004010104040403030303050503030000A6
:1052DA000101201001204004100208010201020409
:1052EA00080402010408102004082010000000002D
:1052FA002E020902A307DF010202EF01E001C00545
:10530A0028031B03B40270025102490284027C0280
:10531A00B801B301000000000E097607F5075F091E
:10532A0026080408180883094B08320881090D0A5F
:10533A000072657475726E5F6572726F722D0028E5
:10534A00002D656E640072657475726E5F646174B7
:10535A00612D0072657475726E5F696E666F2D00DD
:10536A002853657269616C50726F6772616D6D6501
:10537A00722920696E666F3A206E6F2053696E67D4
:10538A006C65576972652D44657669636520776136
:10539A007320646574656374656400285365726973
:1053AA00616C50726F6772616D6D65722920696EEA
:1053BA00666F3A2053696E676C65576972652D444A
:1053CA00657669636520666F756E64006E616E004E
:1053DA00696E66006F76660072656164696E672041
:1053EA006D656D6F7279206661696C65640028531A
:1053FA00696E676C65576972652920636865636BB6
:10540A005772697474656E44617461002853696ED9
:10541A00676C65576972652920636865636B5772A3
:10542A00697474656E44617461202D3E20636F6DEA
:10543A00706172696E67206F6620726561642D20E3
:10544A00616E642077726974654275662066616967
:10545A006C65642040206D002853696E676C65573F
:10546A0069726529203E20636865636B696E6720EF
:10547A007375636365737366756C6C79006E6F2000
:10548A006465766963652064657465637465640040
:10549A002853696E676C6557697265292064697358
:1054AA00636F7665724465766963650064657669DB
:1054BA00636520646973636F7665727920666169D2
:1054CA006C6564002853657269616C50726F67720B
:1054DA00616D6D657229207265616446726F6D53E4
:1054EA00696E676C65576972654D656D6F72790093
:1054FA00636F756E7420697320302C20706C65613F
:10550A00736520656E7465722076616C7565203EE0
:10551A00203020616E64203E3D205F5357495F452D
:10552A00454F50524F4D5F4D454D5F53495A4500C7
:10553A002853696E676C65576972652920726561BF
:10554A00644D656D6F727900636F756E742069734F
:10555A0020746F2062696720666F722074686973AD
:10556A00206D656D6F7279206C6F636174696F6EFF
:10557A00002853696E676C655769726529203E2059
:10558A00726561643A20002066726F6D204545504D
:10559A00524F4D202D2000206279746573204020DF
:1055AA0061646472657373203078006661696C6542
:1055BA006420746F2066696E6420706F7369746901
:1055CA006F6E00656E640D00636F756E742077618F
:1055DA00732030002853696E676C655769726529B4
:1055EA002077726974654D656D6F727900746F20EA
:1055FA006D756368206461746120666F72207468D7
:10560A006973206D656D6F7279206C6F636174695F
:10561A006F6E002853696E676C6557697265292039
:10562A003E2077726F74653A200020746F204545DA
:10563A0050524F4D202D2000646174614172726195
:10564A0079202861727261794C656E6774682920C5
:10565A0077617320746F6F206269670028536572DF
:10566A0069616C50726F6772616D6D65722920771E
:10567A00726974653253696E676C65576972654DF4
:10568A00656D6F72790072656164790020535441C7
:10569A005254494E47205448452050524F47524190
:1056AA004D20006164632050696E2076616C7565D7
:1056BA003A200056205231313A200056206F757434
:1056CA003A200050696E3A20005265616420766182
:1056DA006C75653A200053657474696E672047508B
:1056EA00494F202E2E2E20004750494F2070696EB8
:1056FA0020002073657420746F2000207375636323
:10570A0065737366756C6C792E200053656C6563DE
:10571A00746564206261756420726174653A200060
:10572A0053656C6563746564207561727420696E73
:10573A00746572666163652E200053656C656374D7
:10574A0065642073776920696E7465726661636542
:10575A002E200053656C656374656420693263208A
:10576A00696E746572666163652E200053656C65A7
:10577A006374656420727334383520696E74657297
:10578A00666163652E20004E6F2073756368206919
:10579A006E7465726661636520646566696E6564C8
:1057AA002E2053656C65637420617661696C616251
:1057BA006C6520696E746572666163652E205B751F
:1057CA006172742C206932632C207377692C2072E1
:1057DA00733438355D0057726F6E6720636F6D6D75
:1057EA00616E642E2053656C65637420696E7465FE
:1057FA0072666163652066697273742E205B7561D7
:10580A0072742C206932632C207377692C2072738E
:10581A003438355D007561727420696E746572661C
:10582A0061636520616C72656164792073656C657A
:10583A00637465642E200053656C65637465642027
:10584A0073776920696E746572666163652E0053A9
:10585A00656C65637465642069326320696E74657A
:10586A0072666163652E0053656C656374656420B6
:10587A00727334383520696E746572666163652E99
:10588A000053656C656374656420554152545F50DA
:10589A00524F544F434F4C5F4D4F44453A200053AB
:1058AA00656C656374656420554152545F4C4F4F73
:1058BA00505F5448524F5547485F4D4F44453A2030
:1058CA000057726974696E67207769746820756118
:1058DA007274202E2E2E20002855415254292077EA
:1058EA00726F746520737472696E673A2000285566
:1058FA00415254292077726F746520696E707574ED
:10590A0020737472696E67206469726563746C7956
:10591A0020746F204455543A200052656164696EC0
:10592A006720776974682075617274202E2E2E2084
:10593A0000526563656976656420696E7075743AAC
:10594A0020007561727400285541525429207772DB
:10595A00697474696E6720737472696E672064690A
:10596A00726563746C7920666F726D204455542099
:10597A00746F2050433A20005468697320636F6D36
:10598A006D616E64206973206E6F7420617661693F
:10599A006C61626C6520666F72207468652075613F
:1059AA00727420696E746572666163652E20007375
:1059BA00776920696E7465726661636520616C72CD
:1059CA00656164792073656C65637465642E200073
:1059DA0070726F67416464723A20004F766572761E
:1059EA006F6C7461676520617420535749206C6934
:1059FA006E652064657465637465642E200028539F
:105A0A00746174656D61736368696E65202D2064C5
:105A1A006973636F766572696E67205357492064AC
:105A2A0065766963650072657475726E5F77617217
:105A3A006E696E672D0053746174654D6173636896
:105A4A00696E65202D205357492077726974696EF3
:105A5A00670057726974696E6720746F20454550F4
:105A6A00524F4D206661696C65642E2043686563F8
:105A7A006B20636F6E6E656374696F6E2E200057BC
:105A8A00726F746520746F20656570726F6D005354
:105A9A00746174654D616368696E65202D20535782
:105AAA00492077726974696E670053746174656D11
:105ABA00616368696E65202D2053574920777269A2
:105ACA0074696E67002564005772697474656E2084
